S02B00002F686F6D652F6C756B652F446F63756D656E74732F4949426C2F344232352F636C65616E2F57617235
S1130000000600201D050000450500004505000010
S113001000000000000000000000000000000000DC
S11300200000000000000000000000004505000082
S11300300000000000000000450500004505000028
S11300404505000045050000450500004505000084
S1130050450500004505000045050000BD1C0000E5
S1130060DF2E000045050000E92E000045050000D4
S1130070F32E00004505000045050000450500007D
S11300804505000045050000450500004505000044
S1130090951C0000AD1C000045050000450500004E
S11300A04505000045050000450500004505000024
S11300B04505000045050000CD1C00004505000075
S1130400FFFFFFFFFFFFFFFFFFFFFFFFFE3DFFFFBB
S11304100448054B10B5834203D0044B002B00D095
S1130420984710BD98FFFF1F98FFFF1F00000000B2
S113043006480749091A8B10C90FC91810B5491085
S113044003D0044B002B00D0984710BD98FFFF1F2A
S113045098FFFF1F0000000010B5074C2378002B05
S113046009D1FFF7D5FF054B002B02D0044800E06B
S113047000BF0123237010BD98FFFF1F0000000080
S1130480B8510000054B10B5002B03D004490548B2
S113049000E000BFFFF7CCFF10BDC0460000000025
S11304A09CFFFF1FB8510000402292029A1A924604
S11304B07047C046154B002B00D1114B9D46FFF7EA
S11304C0F3FF00218B460F461148124A121A00F01E
S11304D003F90C4B002B00D098470B4B002B00D09A
S11304E098470020002104000D000B4800F02EF86E
S11304F000F06AF82000290001F02AFC00F03AF824
S113050000000800000000000000000000060020B9
S113051098FFFF1FC0020020A105000072B6064824
S11305200649074A02600A6002F0E8FC02F028FD6E
S113053062B6FFF7BFFF000080E100E080E200E068
S1130540FFFFFFFF004800474505000010B501000C
S113055000230022002000F01DFA10BD10B50A008F
S1130560002100F0B9F810BD014B18687047C0466F
S113057000FEFF1F084B10B50400002B02D0002121
S113058000F070FA054B1868836A002B00D0984776
S1130590200001F0F5FAC046650A0000F84C00009E
S11305A070B5074D074C641BA41005D0013CA30093
S11305B0EB589847002CF9D104F004FE70BDC046F6
S11305C0DC510000E051000070B50C4D0C4E761B60
S11305D0B61005D0002408CD01349847A642FAD1BC
S11305E004F0EAFD074D084E761BB61005D0002432
S11305F008CD01349847A642FAD170BDD851000005
S1130600D8510000D8510000DC51000010B5034B54
S11306100100186800F014F910BDC04600FEFF1F69
S113062010B5034B0100186800F0AAF810BDC046CD
S113063000FEFF1FF0B5C64600B50F2A41D90327B7
S11306400D003E0005430C0003002E402F423DD117
S11306501500103D2D09A8462D01AC468444276899
S11306601D001F6067685F60A7689F60E7681034BB
S1130670DF6010336545F2D145460F230C24013564
S11306802D01491913404519144222D08C59AC51FB
S113069004369C1B032CF9D8043B9B0801339B00B4
S11306A0ED18C91803231A40561E002A06D0002349
S11306B0CC5C1A00EC5401339642F9D180BCB846A4
S11306C0F0BD0500561E002AF1D1F7E70500561EBD
S11306D0EDE71A00F6E7C046F0B50500830749D0F8
S11306E0541E002A45D003000326CAB202E0013595
S11306F0013C3ED301332A703342F8D1032C30D964
S1130700FF220A40150215432A0415430F2C34D93D
S11307102700103F3F093E01B4461E001A00103660
S11307206644156055609560D5601032B242F8D1C8
S113073001373F01DB190F270C22274022403C00E0
S1130740002A0ED03E1FB608B400A4461A001C1D91
S1130750644420C2A242FCD103240136B6009B1992
S11307603C40002C05D0C9B21C19197001339C42BD
S1130770FBD1F0BD03001400C0E72700E2E7C04648
S113078070B50500002915D00C1F2368002B23DB4E
S1130790280000F0E5F9294A1368002B05D0A3428C
S11307A00BD92168601883422DD06360280014603F
S11307B000F0D8F970BDA34210D81A005B68002B72
S11307C0F9D1106811188C4219D030D36360546089
S11307D0280000F0C7F9EDE7E418D9E711685018CC
S11307E0A04217D023D8216860188342EED118683C
S11307F05B6884466144216063605460E8E7236871
S113080018181060E4E718685B6884466144216046
S11308106360CBE720680918501811608342D7D170
S113082018685B688446614411605360D0E70C2308
S113083028002B6000F096F9BCE7C046B4FFFF1F08
S1130840F8B50323CD1C9D43083506000C2D27D293
S11308500C25A94226D8300000F082F9284F3A68C6
S1130860002A27D0140004E063682200002B21D062
S11308701C0023685B1BF7D40B2B17D863689442C6
S113088035D05360300000F06DF9200007220B30A2
S1130890231D9043C21A984207D01B1AA35004E0A8
S11308A0002DD6DA0C2300203360F8BD2360E41851
S11308B02560E7E77B68002B1BD02900300000F09F
S11308C021F8431C0CD00323C41C9C43A04205D034
S11308D0211A300000F016F8431C01D02560D1E73E
S11308E00C233000336000F03DF90020DDE73B606D
S11308F0C8E70021300000F005F87860DDE7C04665
S1130900B4FFFF1F002370B5064D040008002B60E0
S113091001F038F9431C00D070BD2B68002BFBD0CC
S11309202360F9E74C00002003000A7801311A70B3
S11309300133002AF9D1704710B583070AD00300A8
S1130940032102E001330B4205D01A78002AF9D1C1
S1130950181A10BD030019680C4A0D4C8A188A43F2
S113096022420FD15968094A04338A188A43224221
S113097008D15968054A04338A188A432242F1D0BF
S113098000E001331A78002AFBD1E1E7FFFEFEFE06
S113099080808080F0B54F464646D646C0B598461E
S11309A02C4B06001D680F00914682B0002D27D005
S11309B06C681F2C4ADC002E16D08823E8589A460F
S11309C000282FD07833C1584A46A300C3181A60B0
S11309D00122A2401143914680225200815080217D
S11309E042465A50022E16D00020631C0234A40042
S11309F06B60675102B0E0BCBA46B146A846F0BD90
S1130A00154D1D60154B002BD2D01B680193882314
S1130A10019AEA50CCE7822349465B00C25811434D
S1130A20C150E1E70E4B002B10D084204000FFF7AB
S1130A30EDFD00280AD080220023520083500432A6
S1130A408350534600216C68E850BDE701204042C2
S1130A50D0E7C04648000020BCFFFF1F0000000094
S1130A600D060000F0B5DE4657464E464546E0B555
S1130A703A4B85B09A461B6889469B460390002BE7
S1130A8055D05B4688229B5898465B465E68741E28
S1130A904DD443461F36B60035009F194B46803E61
S1130AA04644783DB1465D445E469B460DE0434670
S1130AB0002B02D03B685B450AD004235B429C4672
S1130AC0043F043DE144013C31D35B46002BEED1AD
S1130AD073682A68013BA3423AD000232B60002AA2
S1130AE0EBD0736801934346002B27D00123802069
S1130AF04146A34040000958029119421ED0822069
S1130B004146400009580291194223D14B460398AB
S1130B10196890477368019A934214D153461B682D
S1130B20B342CAD0D9469B465B46002BA9D105B037
S1130B30F0BCBB46B246A946A046F0BD90477368D8
S1130B40019A9342EAD053461B68D9469B46EBE789
S1130B507460C4E74B4618689047DBE74800002000
S1130B607047C0467047C04602B471464908490000
S1130B70095C49008E4402BC7047C04603B4714608
S1130B80490840004900095E49008E4403BC70478F
S1130B90002243088B4274D303098B425FD3030AB8
S1130BA08B4244D3030B8B4228D3030C8B420DD3CB
S1130BB0FF22090212BA030C8B4202D31212090259
S1130BC065D0030B8B4219D300E0090AC30B8B4297
S1130BD001D3CB03C01A5241830B8B4201D38B0345
S1130BE0C01A5241430B8B4201D34B03C01A5241EA
S1130BF0030B8B4201D30B03C01A5241C30A8B422D
S1130C0001D3CB02C01A5241830A8B4201D38B0217
S1130C10C01A5241430A8B4201D34B02C01A5241BB
S1130C20030A8B4201D30B02C01A5241CDD2C3092D
S1130C308B4201D3CB01C01A524183098B4201D3A9
S1130C408B01C01A524143098B4201D34B01C01A94
S1130C50524103098B4201D30B01C01A5241C3080C
S1130C608B4201D3CB00C01A524183088B4201D37B
S1130C708B00C01A524143088B4201D34B00C01A67
S1130C805241411A00D20146524110467047FFE7D3
S1130C9001B5002000F0F0F802BDC0460029F7D0ED
S1130CA076E7704703460B437FD4002243088B4208
S1130CB074D303098B425FD3030A8B4244D3030BDF
S1130CC08B4228D3030C8B420DD3FF22090212BAA4
S1130CD0030C8B4202D31212090265D0030B8B4220
S1130CE019D300E0090AC30B8B4201D3CB03C01A0A
S1130CF05241830B8B4201D38B03C01A5241430BE5
S1130D008B4201D34B03C01A5241030B8B4201D3D4
S1130D100B03C01A5241C30A8B4201D3CB02C01A3F
S1130D205241830A8B4201D38B02C01A5241430AB7
S1130D308B4201D34B02C01A5241030A8B4201D3A6
S1130D400B02C01A5241CDD2C3098B4201D3CB014D
S1130D50C01A524183098B4201D38B01C01A5241FC
S1130D6043098B4201D34B01C01A524103098B4200
S1130D7001D30B01C01A5241C3088B4201D3CB00EB
S1130D80C01A524183088B4201D38B00C01A5241CE
S1130D9043088B4201D34B00C01A5241411A00D27E
S1130DA001465241104670475DE0CA0F00D04942E7
S1130DB0031000D34042534000229C4603098B4257
S1130DC02DD3030A8B4212D3FC22890112BA030ADF
S1130DD08B420CD3890192118B4208D38901921161
S1130DE08B4204D389013AD0921100E08909C309E6
S1130DF08B4201D3CB01C01A524183098B4201D3E8
S1130E008B01C01A524143098B4201D34B01C01AD2
S1130E10524103098B4201D30B01C01A5241C3084A
S1130E208B4201D3CB00C01A524183088B4201D3B9
S1130E308B00C01A5241D9D243088B4201D34B00D4
S1130E40C01A5241411A00D20146634652415B1016
S1130E50104601D34042002B00D5494270476346F7
S1130E605B1000D3404201B5002000F005F802BD3C
S1130E700029F8D016E770477047C046F0B55746CA
S1130E804E464546DE46E0B598460C034B00060048
S1130E90924687B0240B5B0DCF0F002B00D15CE191
S1130EA0D94A934200D175E1420FE40014438022F1
S1130EB012041443D54AC5009446634400930023A6
S1130EC099469B46434642461E03D20F5B0050465A
S1130ED09046360B5B0D00D120E1CB4A934200D102
S1130EE062E1CA49420F8C4600996344F6008C467D
S1130EF0164380229C44120463461643C200002019
S1130F0000930099434601318C4649467B40019346
S1130F100F2926D8BE4B890059588F464346019362
S1130F203400150083465B46022B16D0032B00D1F8
S1130F3003E2012B00D0CDE0002200240025019B18
S1130F4012052243DB071A432800110007B0F0BC46
S1130F50BB46B246A946A046F0BD00240025AA4AD5
S1130F60EDE7280C2D042D0C2B00110C1204120C8F
S1130F705343984613002F00434399464F434F442D
S1130F80BB4647460B003F0CBA464343DA44029340
S1130F90D14504D980277F02B9464B440293534676
S1130FA01B0C9B4653461F0443461B041B0C9846CC
S1130FB03B0043440493330C3604360C9846330008
S1130FC043439946434643432F009A464346774357
S1130FD05D43380C4D444519A94503D980235B0270
S1130FE09946CA443F04280C3F0C2D04ED19270CE4
S1130FF02404240C0300200050437A4391463A0011
S113100053440593030C9A464A436143494451446B
S1131010AB44894503D980235B0299464A440004C2
S11310200B0C000C09040918200099464346704330
S11310305C437E435F43030C9846A41944444A44EA
S11310400397A64204D980235B029846474403973A
S11310502304029E9A46059B5E449846AE42AD41E7
S113106076188E4289410004000C504440446D427D
S11310704719B846934649428946C344D9449842DD
S11310808041A845AD4193459241894589416D42CE
S113109040422843240C524249420A43039B00190C
S11310A08018C7184B46DC0D049B75021D436A1E4D
S11310B095414B46F60D7F0235435A023C43154396
S11310C0FB0100D41CE101216A080D401543E2072D
S11310D0154364084F496144002900DCB0E06B0704
S11310E009D00F222A40042A05D02A1DAA42AD4164
S11310F06D4264191500E30104D58021464AC900F4
S113110014406144454A914200DD26E76207ED0838
S1131110640249051543240B4A0D10E75246324335
S113112000D17FE0002E00D1DCE0300000F00AFDA9
S113113002000B3A1D2301009B1A52460839DA407B
S11311408E40164352468A40009B3549181A0300C4
S11311508C46634400200093D3E6250005434AD01F
S1131160002C00D1B0E0200000F0ECFC01000200F3
S11311700B391D2310005B1A3100350008388440F8
S1131180D94085400C432648831A0093002399468E
S11311909B4697E60500254326D1082200930223A7
S11311A0002491469B468DE65246009B324310D163
S11311B0154900268C46634449460093022319438B
S11311C0894602209DE65B460197022B00D0ADE6DE
S11311D0C3E60D4A0320944663444A46009303231E
S11311E01A43914652468CE60C22009303230500D1
S11311F091469B4666E604239946002300930133F7
S113120000249B465EE6C046FF07000001FCFFFF8A
S1131210FC4C0000FF030000FFFFFFFEFE07000080
S11312200DFCFFFF4946012319438946002601208E
S113123067E6002380240025434A019324037EE6C5
S11312400120401A382800DD76E61F285BDD1F22C6
S113125023005242511ACB401900202803D03B4AA4
S11312606244944025436A1E95412A000A4307219B
S11312700D000024154011425BD00F2100241140C1
S1131280042953D0111D914292415242A4180A00DC
S113129023024BD501220024002550E680231B03A2
S11312A01C4209D01E4207D133431C034346150098
S11312B0240B254A019342E680221203144324039B
S11312C0214A240B01973AE600F03CFC010002009D
S11312D0153120321C2900DC4BE734000838002586
S11312E0844050E700F02EFC03001A001532203031
S11312F01C2A00DC1EE75646083B00229E4023E7DA
S1131300009B9C46E6E61249220061442E008D4073
S11313108A40C640691E8D4132432A43C440530764
S1131320B6D00F2111400429ACD1B1E7650764029E
S1131330240BD2081543002201E680221203144331
S11313402403014A240BFAE5FF0700003E040000D1
S11313501E040000F8B557464E464546DE46E0B545
S11313601E0017004A000B03520D5B0A9046420F01
S11313701A43CD0FCD4C3103C300944670007A0F4D
S1131380490AFF009A46B946400DF60F1143A042A0
S113139000D1B1E001225640B346B54200D188E005
S11313A04246121A002A00DCAEE0002800D1C1E057
S11313B0BE48804500D151E1802000040143382A11
S11313C000DD7BE11F2A00DDEEE120203E00801AD3
S11313D00C00D640D140874062468440521A781EA1
S11313E08741944634432743DC1BA3429B41624616
S11313F05B42D31A99464B461B0200D418E14B4674
S11314005802430A99464B46002B00D137E148461F
S113141000F098FB010008392023220048465B1A9B
S1131420DA4088408C4043461043884500DD36E16D
S1131430C91A4B1C1F2B00DDEAE020222600D21A19
S113144001009440DE40D84000239140621E944144
S11314508146984631430C43630709D00F23234048
S1131460042B05D0231DA342A4416442A1441C00C3
S11314704B461B0200D4DEE041468C4B01319942BD
S113148000D1E7E04B468A48E408034018004905C8
S11314905B07400223434A0D040B1205ED07224368
S11314A02A4318001100F0BCBB46B246A946A04628
S11314B0F8BD4246121A002A52DD002800D19CE0F1
S11314C0A04500D1CAE0802000040143382A00DD91
S11314D049E11F2A00DC97E110000E002038C640C5
S11314E0202A04D04020821A91400F43B9464C462A
S11314F0621E944134433AE10A003A4328D0B34689
S1131500B5422BD06B4A4244002A5DD04246444641
S1131510821A002C00D0F5E065461D4300D19CE101
S1131520551E012A00D1FBE1604CA24200D1BDE16D
S11315302A00F0E00800384300D1C3E0501E012A1D
S113154000D1A8E1594CA24200D187E0020036E75D
S113155001225640B346B54200D021E7554A4244E1
S1131560002A00D1B5E042464446821A002C00D13C
S113157038E14E4EB04200D1DEE1802664463604A6
S11315803443A446382A00DD96E11F2A00DD24E214
S11315902026B41AA24664465646B440A1461C000E
S11315A04E46D440264334005646B3405E1EB341F3
S11315B01C436346D340C918E419BC42BF417F426F
S11315C0B94680468944D8E040463B4C013020422D
S11315D000D0B4E04046002800D044E160461843FF
S11315E000D190E10800384300D0AAE16146DB084D
S11315F049070B436146CC0827E00800384361D013
S1131600501E012A00D139E1A24227D002005DE731
S113161002001F39CA401100202B03D04022D31AE4
S113162098400443631E9C410023994698460C430A
S1131630630700D012E74B464A46E4085B0723439E
S1131640D408424619498A420ED024035205240B79
S1131650520D22E70A00002400231EE7DB0862463D
S1131660520713436246D4081A00224300D1FCE116
S113167080221203144324030C4A240B0DE7200098
S113168000F060FA010018311F2900DCC4E60838B4
S11316908440434620000024884500DCC8E6044A10
S11316A05B1A104098468146D6E6C046FF07000004
S11316B0FFFF7FFF01F8FFFFFE0700000F437A1EC4
S11316C0974191E66146DB0849070B436146CC0824
S11316D0B8E74046D34C0130204200D0A2E0404657
S11316E0002800D001E16046184300D15EE1080003
S11316F0384300D05FE16146DB0849070B4361468C
S1131700CC08A2E7C84DA84200D1CFE080256446AA
S11317102D042C43A446382A56DC1F2A00DDD1E0D0
S113172020251E00AD1A6446AB40AC40D6405D1E79
S1131730AB41344323436446D440091B49E060462B
S1131740DC1B461AA34280414042814630004E468B
S1131750801B8146000276D44B46234300D052E6D8
S11317600024002571E739430C00621E9441E418FB
S11317709C429B415B42634499464B461B0200D406
S113178056E701239C46A84BE044984538D04B4685
S1131790A648012203401800630814401C43C307F1
S11317A01C434308994657E610000E002038C640F3
S11317B0202A04D04020821A91400F43B9464F4654
S11317C07A1E974137430FE662461A4313005A1EA6
S11317D09341FC1AA742BF417F42CB1B99465D4609
S11317E0804608E666461E4300D1BEE0561E012A26
S11317F000D109E18C4CA24200D119E13200C1E6CA
S113180042460024002348E620200C00801A3E00B3
S113181087408440D640781E8741D14034433C43BE
S11318208C44A4E7804A904200D1E9E0DF199F424A
S11318309B4161445B42C918CC077F084B08994619
S113184080463C43F4E6FC1AA742BF4163467F420C
S1131850C91ACB1B99465D46D5E5FF084B075D4683
S11318603B43CC08EEE662461A4300D082E00B000C
S11318703B431BD1802400252403F9E6DC199C4258
S11318809B41614489465B4299444B461B0244D4C4
S113189001239846CCE6DC1B6246A3429B41511AC5
S11318A05B42CB1A994601239846A4E5FF084B07EF
S11318B05D463B43CC08D7E662461A431400631ED8
S11318C09C4179E615006446203DEC40A046202A60
S11318D005D040256446AA1A944023439A465446A8
S11318E0631E9C414346234373E762461A4323D055
S11318F00A003A4300D0A0E06246DB0852071343D3
S11319006246D408B0E60B003B4300D128E7FF0849
S11319104B075D463B43CC0897E60223984636E7DF
S1131920FC1AA742BF4163467F42C91ACB1B9946A2
S113193001235D4698465EE54B07FF083B43CC0810
S113194092E6DC1B6046A342B641401A7642801BF5
S11319508146000260D5FC1AA742BF4163467F421C
S1131960C91ACB1B99465D4676E5FF084B073B43F6
S1131970CC0867E60A00DB083A4300D16FE662460A
S1131980520713436246D40880221203144207D03C
S1131990C808104204D15D460400FB0849070B4304
S11319A05A0FDB00DB08520713435DE64B07FF08C1
S11319B03B43CC0849E6DC199C429B41614489467F
S11319C05B4299444B461B0200D431E64A46174B0E
S11319D01A400123914698462AE616006446203EA2
S11319E0F440A046202A05D040266446B21A94400A
S11319F023439A465446631E9C4143461C43DBE5FD
S1131A0002000024002348E5DC19BC42BF416144C4
S1131A1089467F42B94438E74B46234300D19FE6C9
S1131A2006E6C046FE070000FF070000FFFF7FFF39
S1131A30FF084B073B43CC0816E66246DB08520717
S1131A4013436246D40880221203144207D0C80804
S1131A50104204D15D460400FB0849070B435A0FAA
S1131A60DB005207DB081343FEE50023014A1C0098
S1131A7013E5C046FF0700000A0030B5134C5300BD
S1131A8009030500090B00205B0DD20FA34204DDFE
S1131A900F48834202DD0F4BD01830BD8020400335
S1131AA001430D48C01A1F2808DD0C48C31AD94049
S1131AB00B005842002AF0D11800EEE7084CC5404C
S1131AC0A446634499400B002B43F2E7FE03000055
S1131AD01D040000FFFFFF7F330400001304000017
S1131AE0EDFBFFFF70B5002816D0C317C5185D4085
S1131AF0C40F280000F026F8114A121A0A2816DC2E
S1131B0003002E0015339E400B23181AC5405205BE
S1131B102D032D0B530D03E0002400230025002684
S1131B201B052B43E40723433000190070BD0B3819
S1131B30854052052D0300262D0B530DF0E7C046BA
S1131B401E0400001C2101231B04984201D3000C35
S1131B5010391B0A984201D3000A08391B0998421C
S1131B6001D30009043902A2105C40187047C04632
S1131B700403020201010101000000000000000052
S1131B80FEE7C0460A4A0300116810B5002901D1D6
S1131B900849116010680849C3188B4206D9FEF73A
S1131BA0E3FC0C2303600120404210BD1360FCE7FA
S1131BB050000020C0020020C002002083780220D0
S1131BC09842804140427047437A0020013B012BF8
S1131BD003D90B78013001330B707047C023174AC7
S1131BE09B001360164A1360164A13600023164ABA
S1131BF01360164A1360164A1360164A1360164A95
S1131C001360164A1360164A1360164A1360164A84
S1131C101360164A1360164A1360164A1360164A74
S1131C201360164A1360164A1360164A1360164A64
S1131C301360164A1360164A1360704700901454D8
S1131C4004901454089014540C9014541090145488
S1131C5014901454189014541C9014542090145438
S1131C60249014543090145400A0145404A0145418
S1131C7008A014540CA0145410A0145414A0145408
S1131C8018A014541CA0145428A014542CA01454A8
S1131C9034A0145410B5002002F03CFD002803D0F9
S1131CA00021080002F02AFD10BD0000024A13685A
S1131CB0013313607047C046A000002010B507210F
S1131CC0014802F0F3F910BD00C007400122024BA5
S1131CD052421A607047C046A090044010B50020DC
S1131CE001F0B2FB8023054A9B001360044A0020E4
S1131CF00449136001F00EFF10BDC0460CA014543B
S1131D0010A01454A4000020014B1B887047C04647
S1131D1074FEFF1F0FB41FB506AB02CB0020039364
S1131D20402303AA0093084B00F0A2FF002807DA1F
S1131D300020064900F0D0FE05B008BC04B01847E6
S1131D40052001F0DAF9F7E75E000020344E0000C8
S1131D50F0B5A7B015AC072200212000FEF7BCFCAB
S1131D607C4A01261A92032205AB1D9307AB1E93EE
S1131D700BAB21930DAB22930FAB239311AB2493A5
S1131D8013AB09AF03A9002025931AAB1A711C9158
S1131D90049326701F94209701F04EFB300001F04D
S1131DA04BFB80226C4B12021A6001F0C5F9002330
S1131DB000961A001900180000F09AFE6748FFF711
S1131DC0A9FFFA20800001F098F96548FFF7A2FF07
S1131DD0FA20800001F091F96248FFF79BFFFA2096
S1131DE0800001F08AF9604A330002215F4801F063
S1131DF0C7F93100300001F0CFF9002002F0C8FB30
S1131E000025FC2317A9DB0028000B804E808E8060
S1131E10CD800D818D7202F0E7FB3200290003A80A
S1131E20FEF75AFC159B69460993A2883220BA80B2
S1131E30A279BA7103223A700B93A28802270A8608
S1131E40A27909180A7069460522063809180A7029
S1131E5069460593A2880A380A83A2790F758A769F
S1131E600793A2880A84A27909180A706946042291
S1131E700A770D93A28818300A87A27909180A7084
S1131E806A4634215118082240200A7069460F938B
S1131E90A28809180A806946A279C01909180A702B
S1131EA068463C2209218018017068461193A38872
S1131EB00C3280180380A37968464A240019037001
S1131EC068460A23063C001903704C206B461B1815
S1131ED004AA1D701DA8330001F000FB2448FFF77D
S1131EE019FF2900380000F083F808229043C0B29B
S1131EF0A84202D01F48FFF70DFF1F48FFF70AFF53
S1131F001E48FFF707FF1E491E4801F001FD1E4C45
S1131F102000FFF7FFFEC0231C4A9B0013601C4AED
S1131F201C4813601C4A1360FFF7F4FEFFF756FECB
S1131F302000FFF7EFFE1948FFF7ECFE00F068FC05
S1131F401748FFF7E7FE00F0ADFC1648FFF7E2FE86
S1131F50FEE7C046C91B0000B40200203C4D00004F
S1131F60574D00005D4D000064FEFF1F80FFFF1F02
S1131F70664D00008B4D0000BF4D0000C74D0000B2
S1131F8050FFFF1F48FFFF1FE44D00000090145452
S1131F9004901454EB4D0000089014540C4E0000AF
S1131FA0254E00002E4E00001FB5040001A900209C
S1131FB002F042FB694601A802F07CFA009B6846E5
S1131FC01C1901A9009402F0FDF9012201A90020C5
S1131FD002F05EFB1FBD00000022034B1A6080224A
S1131FE0024BD205DA67704700901C5804E100E008
S1131FF070B50D000A2408281CD8FEF7B5FD051D90
S11320002A3F546771795C0001F000FC0524012823
S113201010D0FFF7E1FF2800FFF7C6FF00210800FA
S113202001F07EFA01210400002001F0B5F8002C33
S113203022D10024200070BD01F0E8FB0624012811
S1132040F8D0FFF7C9FF2800FFF7AEFF00210120F9
S1132050E6E701F0DBFB08240128EBD001F01AF9D4
S1132060002803D00121002001F096F8002102206D
S113207001F056FA0028DCD00924DBE701F0C6FBA6
S113208007240028D6D0FFF7A7FF2800FFF78CFF0E
S11320900021032001F044FA040001F0B7FB012100
S11320A00028C4D1C1E7FFF797FF2800FFF77CFFA2
S11320B000210420EEE70021082001F031FA041E7B
S11320C0DAD10121080001F067F8B3E7FFF784FFD4
S11320D02800FFF769FF0021052001F021FACBE772
S11320E0FFF77AFF2800FFF75FFF00210620F4E7DF
S11320F0FFF772FF2800FFF757FF00210720ECE7E6
S1132100F0B506000D00114B89B05A7806AC228058
S11321100F4A05AF12680792188980B2FFF7F4FDE1
S11321203E7004AE3570FFF7D9FD0A4B3A001B68C8
S113213021000293012300200193009601F026FE62
S1132140002800D0022009B0F0BDC0465400002091
S113215078FEFF1F7CFEFF1F014B587019817047EA
S113216054000020030010B50320212B14D8082BA1
S113217019D918000938182816D8FEF7F5FC1111DA
S1132180151515111115111111111115111115151F
S113219015151115111111001A00233A0E2A02D82F
S11321A01800FFF7ADFF10BD0320FCE770B5040075
S11321B0084B0D00188980B2FFF7A6FD2100092005
S11321C0FFF79EFF290004002A20FFF799FF204310
S11321D0C0B270BD5400002070B588B06A46184B78
S11321E004001B780E001375182822D8C31F03207F
S11321F0012B23D9134B06AD5A782A80124A126850
S11322000792188980B2FFF77FFD6B461C75FFF7B4
S113221065FD0E4B29001B68002002930C4B0196B0
S1132220009305AA012301F0BEFD002806D0022078
S113223004E023001D3B0320142BDBD908B070BD40
S11322405A4E00005400002078FEFF1F7CFEFF1F42
S113225056000020094A30B50021140013681B18E9
S11322606568013120C45B190629F9D19061072200
S1132270D8171040C018C01030BDC046240100203B
S113228003006520044A81005158994202DD013857
S1132290F9D200207047C046CC4E0000F0B53F256F
S11322A0494A4A4B0021595E0020135E48486B435B
S11322B05B18DC172C40E418A411464B091B09B227
S11322C01980454B148000229A5E0026835F6B437D
S11322D09B18DE172E40F618B611404B921B12B213
S11322E01A803F4B068000201B5E3E480027C05FDB
S11322F06843C018C7173D4028183A4D80112880FC
S11323001B1A394D1BB22B80384D2F683C192C6099
S1132310374D2C6864182C600C00364D4C432F68E4
S1132320E4192C60344C2568AE19344D26602C68B1
S1132330A4182C601400324D54432E68A4192C6048
S1132340304C2568281820602F4C2068C018206065
S113235018002E4C58432568401920602C4800254D
S1132360445FA14201DC002C01D1018006E0294830
S11323700025445FA142F8DB002CF6D02649002456
S1132380085F824201DC002801D10A8006E023496B
S11323900024085F8242F8DB0028F6D0204A00209F
S11323A0115E8B4201DC002901D1138006E01D4A35
S11323B00020115E8B42F8DB0029F6D01A4A002077
S11323C0137801331370F0BDF6000020C80000201C
S11323D006010020F4000020CA00002004010020AF
S11323E0CC0000201601002014010020D800002099
S11323F0D0000020D4000020E4000020DC000020F5
S1132400E0000020F0000020E8000020EC000020A4
S1132410F8000020FA000020080100200A01002032
S1132420180100201A010020400100203F20324AF8
S1132430F0B51168CB1703405B189B1113602F4A4A
S11324401168CB1703405B189B1113602C4A116869
S1132450CB1703405B189B1113602A4B1A68D117E2
S11324600140891889111960274B49431C68E217F8
S113247002401219254C921125681A60EB1703408B
S11324805B199B112360224C524326685B43F5176A
S11324900540AD191F4EAD1137682560FC17044087
S11324A0E419A41134601C4E691A37681B4DFF17D8
S11324B0384037682960C01919498011A21A306060
S11324C00A60184AC31A1360174B002000229B5E4F
S11324D0164A1380164A1360164B00229B5E164A56
S11324E01380164A1360164B00229B5E154A138014
S11324F0154A1360F0BDC046D8000020E400002057
S1132500F0000020D0000020DC000020E8000020C3
S1132510D4000020E0000020EC0000200001002096
S11325201001002020010020FA000020F800002003
S1132530FC0000200A010020080100200C010020FA
S11325401A010020180100201C010020F0B500240D
S11325505B4B8FB01B68250002935A4B1B68039397
S1132560594B1B680493594B1B680593584B1B68C4
S11325700693584B1B680793574B1B680893574B9C
S11325801B680993564B1B680A93564B1B680B93A5
S1132590554B1B68554F0C93554B564E1B68019376
S11325A00D9302AB1B59E259A159981A4043019368
S11325B0FEF778FB04342D18302CF2D14E4B1868FA
S11325C0FFF790FA060028000F00FFF78BFA0022AD
S11325D04A4BFEF753FC02000B0030003900FEF7B3
S11325E0B9FEFFF749FA002604003500444F02AB58
S11325F09B59F2590193981A424B4043F158FEF704
S113260051FB04362D18302EF1D13F4B1868FFF7DB
S113261069FA060028000F00FFF764FA0022374B1E
S1132620FEF72CFC02000B0030003900FEF792FE8E
S1132630FFF722FA0025844200DB051B2800FFF780
S11326401FFE0400020029003048FFF763FB20004E
S1132650FFF700FE01002E48FFF75CFB5A2C06DD55
S11326600C20FF3001F07CF9852040001DE0322C65
S113267013DD0E20FF3001F073F90C20FF3001F060
S113268061F98520400001F05DF944230122E81737
S11326905B429D4250410FB0F0BD0A2C0ADD8520FB
S11326A0400001F05DF90C20FF3001F04BF90E20E1
S11326B0FF30E8E70C20FF3001F044F9D4E7C046CE
S11326C0D8000020E4000020F0000020D00000200A
S11326D0DC000020E80000200001002010010020A0
S11326E020010020FC0000200C01002088FEFF1FB8
S11326F01C010020E8FEFF1F80FEFF1F0000E03FDA
S1132700B8FEFF1F18FFFF1F84FEFF1F5C4E000072
S11327106F4E0000204B00229B5E204A1380204A0B
S11327201380204B00229B5E1F4A13801F4A138094
S11327301F4B00229B5E1F4A13801F4A13800023F5
S11327401E4A13601E4A13601E4A13601E4A136019
S11327501E4A13601E4A13601E4A13601E4A136009
S11327601E4A13601E4A13801E4A13801E4A138099
S11327701E4A13801E4A13801E4A13801E4A136089
S11327801E4A13601E4A13601E4A13601E4A1360D9
S11327901E4A13607047C046C8000020F4000020A1
S11327A0F6000020CA0000200401002006010020D9
S11327B0CC0000201401002016010020D4000020C9
S11327C0D0000020D8000020E0000020DC00002021
S11327D0E4000020EC000020E8000020F0000020CD
S11327E0F8000020FA000020080100200A0100205F
S11327F0180100201A0100202001002010010020EF
S1132800000100201C0100200C010020FC0000201D
S1132810E12110B51D20C900FFF79EFC01210E2007
S1132820FFF7A0FC21210020FFF7C0FC01210D20AF
S1132830FFF7D2FC01001448FFF76CFA134B9B78A6
S1132840D9B21A2B04D01248FFF764FA012010BD44
S11328501048FFF75FFAC82000F04FFC8023852062
S11328600D4A5B0013600D4A400013600C4A13606C
S113287001F068F80C20FF3001F064F80E20FF30FE
S113288001F060F80020E2E77F4E000054000020D1
S11328908C4E0000B14E000034A014542CA01454EB
S11328A028A01454F7B50725012400271E4B1A78D5
S11328B03F2A06D11F70FFF7B9FDFFF747FEFFF768
S11328C029FF21000020FFF787FC184EB3782B4026
S11328D0072BEBD106212000FFF77EFCB378F278BA
S11328E09C4633799208019363467779B179F079FC
S11328F09E01164380220E4B92015640F6180D4B52
S1132900BF081E80019B0C4E9B013B43084F534064
S113291089018008DB19014333804A40074BD219EF
S11329201A80FFF7BBFCC0E74001002054000020E0
S113293000E0FFFFC8000020CA000020CC000020F7
S11329400369C268934201D880681B18013B981A36
S11329507047F7B58368C46801931F1B436805007B
S11329600E001819A418974207D83A00FDF762FE22
S1132970019B6868E41A2200F119FDF75BFEEC6024
S1132980F7BD0023F7B506001700C5680191009351
S11329903369B4689D421FD2013B5B1B641BBC427C
S11329A000D93C009C4200D91C00736822005819CD
S11329B00199FDF73FFE009B2D191B190093019B04
S11329C03F1B1B190193B368AB4200D10025F5608E
S11329D0002FDDD10098FEBD1B19DDE7022310B5E1
S11329E00F4C104A236163610F4BA261E3616423BE
S11329F0A2640E4A2362E26400230422A362636297
S1132A00E362A3656365E36522650949E01DFDF79B
S1132A108BFF20000749FDF787FF2023A37110BD1A
S1132A204401002060500000C0010020BC010020CF
S1132A30695000006D500000F8B516001822451CBE
S1132A4055434243164B0F005D199B18DC6A012C59
S1132A5010D0022C1BD0002C1FD12800FFF770FFD0
S1132A60864205D8320039002800FFF772FF34008F
S1132A702000F8BD2800FFF763FF3400864200D928
S1132A800400220039002800FFF763FFF0E732005A
S1132A902800FFF776FF0400EAE70024E8E7C046D1
S1132AA044010020F8B50B4B04001B780E001700FE
S1132AB0002B01D1FFF792FFEFF31085012181F381
S1132AC010883A0031002000FFF7B6FF85F3108824
S1132AD0F8BDC0464401002070B5050008000C0094
S1132AE0FDF72AFF210002002800FFF7DBFF70BD7D
S1132AF0F7B5164C0193237805000F001600002B40
S1132B0001D1FFF76BFF2369AB421CD9EFF31082AD
S1132B10012181F31088002D0CD01823691C59431E
S1132B206B43675061184E600199E31819620021E4
S1132B309962596218204543089B6419E36282F341
S1132B4010880020FEBD01204042FBE74401002024
S1132B50826810B504004068531C834205D820687D
S1132B608154A360E3680133E360A26863689A4216
S1132B7009D121682069FFF795FFA368984203D023
S1132B8001235B42E36010BD0023A360FBE7000068
S1132B90F0B5050017000800012685B00A9C0291D3
S1132BA00093B84219D2009A0196964200D201923B
S1132BB001230B9A1A4003920B9A1A4202D1002C59
S1132BC010D10024EB680126002B4BDB009B012B6A
S1132BD01FD9013B00937E43F8E73900FDF7D8FF86
S1132BE00136DEE70B9B20269B0704D5009B10369D
S1132BF0002B00D0103E019BA342E3D231002800F9
S1132C00FFF7A6FFEB68013C002BDBDB002CF2D1C5
S1132C10D7E731000298FDF7BBFF8742DBD9029862
S1132C203100FEF73BF8114B0291195C2800FFF7C5
S1132C308FFFEB68002B05DB39003000FDF7A8FFA0
S1132C40BE4211D2039B002B0CD0002C0AD0019B56
S1132C50A34207D220212800FFF77AFFEB68013C4A
S1132C60002BF2DA05B0F0BD0600D8E7745000007E
S1132C70F0B58FB007900E00180014991500069354
S1132C80FDF76CFC069B079A0993149B0D920A931B
S1132C9000230B930C9331780136002907D10C9B48
S1132CA00293002B00DD09E10C980FB0F0BD25293B
S1132CB000D0B3E000270822042006E0302B0DD119
S1132CC0022300E001231F430E003378711C2D2BD7
S1132CD0F8D0F3D8232B10D02B2B0CD000240A21AE
S1132CE03378721C18003038092808D84C43303C1B
S1132CF016001C19F4E70743E6E71743E4E700214D
S1132D0002912E2B0ED116000A203278711C13006A
S1132D10303B092B06D8029B0E004343303BD318AB
S1132D200293F2E7042331780A0001369A43682AB1
S1132D3001D13178F8E7782909D86F290BD86329AC
S1132D4067D017D8252969D0582900D195E00C9B64
S1132D50002BA0DAA3E7703908000829F7D8FDF79B
S1132D600DFFA500F6FFF6FF9400F6FF8300F6FFC3
S1132D70F6FF8C006429EAD12B681A1D1B682A60AF
S1132D80DA1798180393012350400493092849DC67
S1132D90029B049A0593934200D20592002C05D01D
S1132DA0039B002B01DB7B0700D5013C02231F4260
S1132DB002D0029B002B05D001231F4202D1002C1C
S1132DC036D100240C9B0493002BC0DB039B002B07
S1132DD03ADA2D215B42039309A8FFF7B9FE0C9B55
S1132DE0002BB4DB03233B40022B05D1029B002BB9
S1132DF002D1002C2CD100240C9B0493002BA6DBC5
S1132E000A22029B03990197009409A8FFF7C0FEC8
S1132E109DE72B6819681A1D2A60C9B209A8FFF733
S1132E2097FE94E70A21FDF73DFF049B0133ACE7CD
S1132E30059BA342C6D2202109A8FFF789FE0C9B5B
S1132E40013C002BBBDABDE77B07C8D52B21C3E7C8
S1132E50059BA342D0D2302109A8FFF779FE0C9B31
S1132E60013C002BC5DAC7E70A22296801970B1D2C
S1132E702B60029B00940968C7E7296801970B1D22
S1132E802B60029B00941022F5E72B681A1D2A6020
S1132E901C6821780134002900D158E709A8FFF7FC
S1132EA057FE0C9B0293002BF3DA50E729680B1DA5
S1132EB02B600023019308330093E4E70B9A002A64
S1132EC003D006990798FFF7EDFD0C9B02930B9B2B
S1132ED00393039A029B944663440C93E4E610B56F
S1132EE0002000F04BFD10BD10B5002001F02EFCB9
S1132EF010BD10B5002001F025F910BD082310B550
S1132F00164A9178194202D091780B439370882124
S1132F1000222220124B49015A501249124C0870C7
S1132F208020124940025850196811480140196024
S1132F30195910480840C0218904014319518021BE
S1132F400D4B1A7219767F391A7059700B490A7031
S1132F500C3299791142FCD110BDC04600D0074013
S1132F600070044000E0074004100000441000001A
S1132F70FFFFF3FFFFFFFFF0004006400050064054
S1132F801249134810B5814205D00022114B9B0809
S1132F909B009A420FD1104B104A996000231049AC
S1132FA01048521A9A420AD100210F4B0F4AD21AE2
S1132FB0013A08D210BD84588C500432E9E7CC5C45
S1132FC0C4540133EEE719700133F1E70000000047
S1132FD0000000000000000000ED00E07853000055
S1132FE0E051000000FEFF1F98FFFF1FC0020020F9
S1132FF0030041700020187058609860704710B545
S1133000437804000120FF2B08D000F02FFA6378E6
S11330100133DBB2637000F01DFA002010BD70B5FF
S113302004000D0000F022FAE1682943E16000F099
S113303011FA002070BD000000220A4B9A641A00A5
S113304040329A631A0030329A621A0020329A612E
S11330501A0010329A60044A1360044B9B60DB60D0
S11330607047C04628020020240200207802002075
S11330700022024B1A60186880B270470C007C5022
S113308070B5437804000D00002B0BD0002500F030
S1133090EDF96378013BDBB26370257000F0DAF977
S11330A0280070BD02200029FBD02378002B17D004
S11330B0FFF7DEFF6368A268984204D3C01A824215
S11330C006D30320EDE7C01A80235B02C018F6E79D
S11330D000F0CCF90023237000F0BCF90220E0E7F3
S11330E04B1CEED000F0C2F90123237000F0B2F9BA
S11330F0FFF7BEFFA5606060E3E770B50500FFF76A
S1133100B7FF802604007602FFF7B2FF0300844273
S113311003D8031B9D42F7D270BD301BC318F9E7D7
S113312010B5012801D100F0A1F910BD10B5012896
S113313001D100F08FF910BD10B5FFF77DFF012319
S11331400020084A08491360084A094C10600860C6
S113315004212160074C216007490B60074908607E
S1133160136010BD388004500000845000000450E7
S1133170000004510400045104000C5000000453E6
S113318010B5044C206021710020A2602373637386
S113319010BDC046880200200422F0B587B005ACFB
S11331A03B4D02900391207061702B790192834210
S11331B025D92B7B6B730123A37000231E0001937D
S11331C0334F3B7BB3421DD8019B002B02D0039BA2
S11331D0012B48D10120FFF7A3FF0C20029B0226FC
S11331E058432B68181800F0B1F8029B01206B714A
S11331F00025FFF79BFFA6703B7BAB421AD80198D2
S113320007B0F0BDBA68B3009B58002B0FD0012162
S11332101A790A420BD020001A689968904700284E
S113322005D0039B7E73002B1BD00523019301362D
S1133230F6B2C5E7BA68AB009B58002B0ED01A79DA
S113324032420BD020001A6899689047002805D0B4
S1133250039B7D73002B17D0062301930135EDB238
S1133260CAE7052301930023A370013EF6B2FF2EA3
S1133270C5D0074BB2009B68D358002BF5D0200073
S11332801A6899689047F0E706230193B7E7C046A8
S113329088020020014B58797047C04688020020FC
S11332A013B50400002021780190022920D00329BD
S11332B022D0012925D1227901AB144801F016F856
S11332C0002814D1A3795A1E9341114ADB011370CB
S11332D063785A1E93410F4A5B001370A2780E4B19
S11332E01A70E2780D4B1A7062790D4B1A7016BD84
S11332F00100227901ABE0E701A9044801F038F8A4
S1133300DEE701A9014800F0D5FFD9E700400640F7
S11333101840865300408650004006500140065035
S113332018401650F821084A43099B009B180905C8
S1133330C2050A4013438022520513431F22104042
S11333401E3A82401A60704728800440072373B5F0
S1133350009300230400104D1A000121280001F0FD
S1133360E7F92000FFF79CFF637A2800009300230D
S1133370217A1A0001F0DCF9E379084A9B0413600E
S1133380074BA17A1D68280001F00EF82800E17AA5
S113339001F011F8002076BD0070044000700C5953
S11333A0D850000010B5054800F044FF044B1968DC
S11333B0C9B20131FDF7ECFB10BDC0460040064028
S11333C044801C5E10B5FFF7EDFF10BD10B5054835
S11333D000F030FF044B1968C9B20131FDF7D8FB86
S11333E010BDC046004006404480145810B5FFF795
S11333F0EDFF10BD0B4B1B68DBB2022B0CD0032B73
S11334000DD00020834206D1074A106880221202A0
S1133410904200D018007047044B1868FBE7FA206C
S11334208000F8E700700C59B4020020B8020020B4
S113343010B5FFF7DFFF10BD10B5024B185CFFF7A6
S113344071FF10BD8450000010B56620FFF76AFFBD
S113345010BD0000044A1368002B04D0013B136024
S1133460002B00D162B670479802002072B6024A5F
S113347013680133136070479802002010B5064C9E
S1133480064801F0F7FA042801D1002010BD013CE0
S1133490002CF5D10320F9E7EA03000000E007401F
S11334A010B50B4B0B490A78002A07D0084C0A4880
S11334B001F0E0FA012806D1002003E0013B002BD3
S11334C0F1D1032010BD013C002CF0D1F9E7C04636
S11334D0EA03000002D0075100E00740F7B50700F7
S11334E00E00150001200193002F15D0002913D0E0
S11334F0FFF716FE094C102200212000FDF7ECF81E
S113350027602671002D03D0019BA560237363738C
S11335100120FFF70BFE0020FEBDC0469C020020E8
S1133520F0B5B44C8BB000900191237B0120637300
S1133530FFF7F6FD2379009A934206D80120FFF79E
S1133540F5FD022630000BB0F0BD009A236892000E
S1133550D558019B07AE2C783372009B2200337040
S113356002239A4375600292012A01D0052C0AD1E4
S11335700121A14801F0D2F9002807D10120FFF769
S1133580D5FD0126DEE70321072CF2D8012373724F
S113359000263700974B1B7BBB422CD80120FFF73A
S11335A0C5FD964800F06AFE029B012B52D10138FA
S11335B002283BD9019B012B00D013E106260120F0
S11335C0FFF7AEFD0023012507AC013F6372FFB294
S11335D0FF2F00D1B2E0874BBA009B68D358002B71
S11335E006D01A792A4203D020001A6899689047B5
S11335F0013FFFB2ECE77F4B9B680393039ABB0048
S11336009B58002B0FD001211A790A420BD01A685B
S1133610996807A89047002805D0764B04265F7365
S1133620019B012BBAD10137FFB2B3E7FFF7DEFEEE
S1133630734B9842BED8FFF7B5FE724B9842B9D887
S1133640FFF7C4FE6F4B9842B4D8FFF7BBFE6D4B37
S11336509842AFD8019B012B00D0C7E00A2C00D9B7
S1133660BEE02000FDF780FA060A0D1E869C7980D4
S11336702F6E7400002205AB1A702DE0032205ABF7
S1133680FAE75D4801F0F6F9012808D000215A480C
S113369001F054F9FFF704FF061E00D052E701229F
S11336A005ABE9E7544801F0E5F9042808D0022104
S11336B0514801F043F9FFF7E1FE061E00D041E74F
S11336C0042205ABD8E7072205AB1A7000225A7012
S11336D0EA789A702A79DA702300083B022B04D81E
S11336E06B7904AA9372AB79D3726B78002B09D0EF
S11336F0012C07D9A9780222434B002953D0196918
S11337000A431A613C4805A901F03CF9002800D09D
S11337100326002C4BD1FFF7C3FE061E00D011E791
S113372000260120FFF7FCFC009B324D0024AB7304
S1133730022307AF7B722B7BA3423DD80120FFF706
S1133740F5FCFFE6072205AB1A70063A5A70C3E788
S1133750072205AB1A70043AF8E7022205AB1A7087
S1133760013A1A715A71B7E70222012105AB1A70A6
S11337701971F7E70222002705AB1A701E48013AB7
S11337801A715F7101F076F90128A5D039001A4841
S113379001F0D4F8FFF784FE0600B8429CD0D1E6CD
S11337A0052205AB68E7196991431961AAE7012C61
S11337B0B7D1FFF763FEB0E7AA68A3009B58002BBC
S11337C00BD002211A790A4207D038001A68996886
S11337D09047002801D005266C730134E4B2AAE7AF
S11337E00326AFE6002E00D1E8E6E8E6002E00D07E
S11337F0E5E633E79C02002000E007400040064075
S113380040420F0080841E0000ED00E010B5064821
S113381001F030F903000020012B03D00B30042BFE
S113382000D10A3810BDC04600E00740F7B5FF24B8
S113383003681C4A1E0A26401C40B3009F581A4ABB
S113384005009B5830000193FFF7F6FD002221008C
S1133850380001F017F9019BA400E41884232A79A5
S11338605B05234352001A6080236A795B05234376
S11338701A609023AA795B05234312011A60EA793E
S11338800A4B1C4313042360002A0AD0084B9B579D
S1133890002B06D01F2213401E3A9A401300054AFB
S11338A01360F7BDDC500000E4500000000018185D
S11338B0EC50000000E100E0F8B5FF2405000368C7
S11338C0114A180A20401C4083009F580F4A9E58F2
S11338D0FFF7B2FD38002100012201F0D3F86A6835
S11338E02100380001F0DDF888232A7AA400A41905
S11338F05B05234392001A6098235B051C436B7A93
S11339009B012360F8BDC046DC500000E450000079
S113391070B50C00002807D1002C0FD170BD050034
S11339200835FFF783FF280003680133F7D1F3E775
S1133930250020000C35FFF7BFFF2C00236801335E
S1133940F6D1EBE7FF22030A044913409B005958C0
S11339500123104083404B607047C046DC50000098
S1133960FF22030A044913409B00595801231040C5
S113397083408B607047C046DC500000084B8200D7
S1133980D258942310B502325B0513431B78002BE5
S113399002D000F015FA10BD00F068FAFBE7C0464B
S11339A088500000020080230C325B0513431A7810
S11339B0002AFCD00171704710B5104B8000C45828
S11339C0E37C002B05D0237C052B02D0237C042B25
S11339D00BD10B4B18589823821C5B051343002210
S11339E01A7001F0CDF801236374A37C002B03D07B
S11339F020001830FFF703FB10BDC046AC020020C6
S1133A008850000070B50D00074B8000C45820009A
S1133A1029001830FFF734FB0328F8D0002801D020
S1133A2004232374237C70BDAC020020F0B517007E
S1133A30002289B005930EAB1B7805000393830025
S1133A4032481E5832481C5807AB1A80A37C880A97
S1133A5004930223FF3363828B0A0193CBB21E28A3
S1133A6001D11A000B0A5B00D8B2019B00211E2B66
S1133A7005D08F4203D1012303995B1A59B2014344
S1133A80CBB202930299019807AB197001211E2849
S1133A9001D15A704918A3603000E1600299FFF720
S1133AA081FF28000F99FFF7ADFF237C002B0CD179
S1133AB0002F0AD0059BA760E36030003978FFF738
S1133AC071FF28000F99FFF79DFF237C039A1A4387
S1133AD014D1019B1E2B01D0002F0FD000230127EE
S1133AE03000A360E76001F039F8029930003943EF
S1133AF0FFF758FF28000F99FFF784FF0023E374B2
S1133B00049BA374237C09B0F0BDC0468850000018
S1133B10AC020020F7B583000193184B8200D758FC
S1133B2005000C000126002F26D1154B3900D3586F
S1133B30200024220193FCF7CFFD20003900183027
S1133B40FFF756FA2800FFF77FFC019800F0B1FF59
S1133B500A4BAA00D4501F220A4B5B5D134032006B
S1133B609A40094B1A609C22019B5205023313436D
S1133B70802266743E001A703000FEBDAC02002044
S1133B80885000008C50000000E100E00A4B8000E7
S1133B9070B5C5584B686A690C0093420BD0074B4B
S1133BA0C658FFF713FC002301006268300000F0E0
S1133BB08FFF63686B6170BDAC0200208850000009
S1133BC0F0B587B004920593334A0FAB1E78830097
S1133BD09C580391627C0700002A03D103202074BF
S1133BE007B0F0BD002E01D11E220E922B4A3800E0
S1133BF0D55800230399E360A3602374236063749E
S1133C00A674FFF7C3FF90231021AA1C5B0513437E
S1133C1019708423E91C5B050B4302211970982356
S1133C205B05134302934023029A2800137000F0AB
S1133C3095FF039B380019880E9B049A0193012376
S1133C400093059BFFF7F2FE0D9B002B17D0237CFE
S1133C50002B11D10C9B2800A3600D9BE3600C9BEF
S1133C601978FFF79FFE002E03D038000E99FFF756
S1133C70C9FE207CC0B2B3E7237C042BF9D1002316
S1133C80029A1370EB789B0602D5280000F078FFA7
S1133C9001236374EDE7C046AC02002088500000A5
S1133CA0F0B589B0079311AB1B780692354A02939D
S1133CB083009C580591627C0600002A03D10320EE
S1133CC0207409B0F0BD029A002A01D11E3210926C
S1133CD000272D4A0599D5580E9B300023600F9B71
S1133CE0A7606360029BE760A37427746774FFF79F
S1133CF04DFF9023AA1C5B051A43102313708423E1
S1133D0004925B05EA1C134302221A709823AA1832
S1133D105B051A43402328001370039200F01EFF32
S1133D20059B069A1988109B300001930097079B06
S1133D30FFF77CFE237CDAB2BB4215D1049BA91C9D
S1133D401A708C235B050B430F99012900D10822BB
S1133D501A702B79029B002B03D030001099FFF7C7
S1133D6051FE207CC0B2ACE7237C042BF9D1039B29
S1133D701F70EB789B0602D5280000F001FF012399
S1133D806374EEE7AC020020885000001FB50124E4
S1133D900394089C0294079C0194069C0094FFF7EA
S1133DA00FFF04B010BD1FB501240394089C0294B6
S1133DB0079C0194069C0094FFF772FF04B010BDA9
S1133DC0244B70B58400E5588423EA1C5B05134337
S1133DD002221A709023A9185B050B431B78EA781A
S1133DE0DBB292061DD5942252050A431278002AAA
S1133DF017D0194AA458012B14D1EA781A4204D0D6
S1133E0004332374FFF7D8FD0BE0E368013BE36060
S1133E10002BF7D0A36828005A1CA2605978FFF73A
S1133E20C1FD70BD6268013A6260002A06D08C232D
S1133E305B05012A0AD000220B4309E0FFF7BCFD11
S1133E4023685A1C22602A791A70EAE708220B4375
S1133E501A70F5E788500000AC020020C31C8420CF
S1133E604005184302230370704700000122F0B597
S1133E708C4B07008000C55887B0EB1C0093EB788F
S1133E80894C1B091A4004920122EB7804599B09BE
S1133E901A4001929022AB1D52051A43944612789F
S1133EA09020D2B20592942252051A431178AE1C86
S1133EB0CAB20292982240055205304313431A783D
S1133EC000900078D2B2C0B20390002932D0059994
S1133ED000290DD01023624628001370FFF7BEFF9F
S1133EE0236B002B50D00121626BF8B298474BE052
S1133EF0002A1FD0402228001A70FFF7AFFF2300CA
S1133F002C331B78002B03D19822520516433370AF
S1133F10236B002B03D08021626BF8B29847E37DBA
S1133F20002B04D0200080211830FFF778F80A23F2
S1133F30237029E02800FFF791FF049B002B25D074
S1133F409022EB1C5205134310221A70019B002B84
S1133F500FD0EB785B07DA0F002B46DB009B1A705F
S1133F60236B002B03D00421626BF8B298472B79A2
S1133F700AE0082323702C342378002B04D19823DF
S1133F805B051E43019B337007B0F0BD019B002B02
S1133F90DFD1039B012B51D1EB78039A13422ED02E
S1133FA0009B019A1A702B7923002C331B78002B69
S1133FB007D1029B002B04D198235B051E43029B6F
S1133FC03370236B002B03D00821626BF8B298473F
S1133FD0A37D002B04D0200008211830FFF71FF820
S1133FE000236360E3602375CEE71023009A137007
S1133FF0236B002B03D00221626BF8B298476368ED
S1134000002B4DD028008022E3680C30520519782B
S1134010024310780028FCD029710133E3606368FF
S1134020013B63606368002BAED1E3602375236BAF
S1134030002BA9D01021626BF8B257E72B79A26844
S1134040DBB2002A2AD02269137023690133236169
S1134050A368013BA360A368002B95D1029B002BAE
S113406011D123002C331B78002B04D198235B053A
S11340701E43029B3370E37D002B04D020002021DB
S11340801830FEF7CCFF002363752361236B002BEC
S113409000D179E72021626BF8B227E7072347E7CD
S11340A0062345E788500000AC020020042902D012
S11340B0072907D07047902303305B05184310236A
S11340C00370F7E79C2303305B0518438023F7E76D
S11340D00A4B800070B5C458094B0025C258DC2334
S11340E008325B0513431D60A37CAB4203D0200060
S11340F01430FEF784FF257470BDC046B002002062
S1134100905000000C4B800070B5C4580B4B002538
S1134110C058D42302005B05083213431D602A00F3
S1134120074900F04EFDE37CAB4203D02000203071
S1134130FEF765FF657470BDB0020020905000006A
S11341401B000200F8B52B4A83009C580600227C11
S1134150002A02D1627C002A3ED0274AD558DC23AB
S11341602F005B051A0008373A431268002A15D05D
S11341702A1D13431B68002B10D0A368002B0DD0FD
S113418023681A780133EA602360A368013BA360C3
S1134190A368002B02D13000FFF79AFFD4235B05FC
S11341A01F433A68002A0DD02A1D13431B68002BB5
S11341B008D0EB6862681370E36A002B0DD021000D
S11341C03000984728000D4900F03CFD002803D03A
S11341D028000A4900F03AFDF8BD636801336360C2
S11341E0E368013BE360E368002BEBD13000FFF7A9
S11341F089FFE7E7B002002090500000130001009F
S113420084225205024312780300D0B2002A0CD053
S11342108020013340050343187801384342584154
S1134220024B40421840024BC0187047808D5B001F
S113423080841E0010B50D4B821D13431A780400B0
S1134240D3B2002A0FD0012B07D1FFF7D9FF084BB7
S113425008341C432378D84010BD0020022BFBD126
S1134260044B1868F8E70448F6E7C0460000081154
S113427000009010B4020020006CDC020C4A811D86
S11342800A4312780300D0B2012A04D002280BD0CA
S113429000280BD1704780220133520513431B7849
S11342A0002BF7D10220F5E70320F3E70520F1E71F
S11342B00000081102009C2318325B05134380227E
S11342C01A700022064B03431A70064B063018433B
S11342D00378DAB2002BFBD1034B10000B6070475C
S11342E00000081300000811006CDC02F8B504009B
S11342F00D0016001F00FFF7C1FF012823D1002D78
S113430025D08023621C5B0513431D708423022285
S11343105B0523431A702200104B083213437200CA
S1134320D2B21A7040220E4B0E48234306341A7040
S113433004432378012BFCD1002D0DD10A4B3341CA
S113434000203B60F8BD0228DBD1012DD9D1390012
S11343502000FFF7AFFFD4E7044BF0E70000901014
S1134360000008130000081180841E0000127A0067
S113437010B50A4C030022680120002A0CD0084A18
S11343807F301A4310700748063303431A78022A11
S1134390FCD1002023680B6010BDC046B40200208D
S11343A000000813000008119C235B05C9010343A6
S11343B0C9B21970704794235B0549010343C9B21C
S11343C01970704770B506680C0030002049FCF77E
S11343D0DFFB1F4905003000FCF760FC0E00E12103
S11343E030000901FCF7D4FBE121E0800901300031
S11343F0FCF754FC0E003C213000FCF7C9FB3C21C7
S113440020813000FCF74AFC124BA17223806E23FA
S11344100321FF3322889D420AD80F49930700D114
S11344200E490123CA5CAA420CD36380A58070BDE7
S11344300132ED1A93B223800B405A4253416E333A
S1134440FF33E7E70133AD1A0D2BEBD1EEE7C0469E
S113445080510100B2070000BC50000094500000DD
S11344600188114A03008A18002030B5812A17D820
S11344705A88541E0B2C13D89C88651E1E2D0FD8E9
S1134480DD88172D0CD81D893B2D09D89B7A3B2B31
S113449006D88B0705D0054B9B5CA3424041C0B2B4
S11344A030BD034BF8E7C0464EF8FFFFBC50000098
S11344B09450000070B5134D838802885B196E25F3
S11344C0FF35554344885B1995085B190E4D66000A
S11344D0755B5B19920710D00B600A680B4BC4889C
S11344E05343827A00899B18E122120162439B188C
S11344F03C2242439B180B6070BD022CECD8013B5C
S1134500EAE7C0464A05F5FFA250000080510100C9
S11345108023084A1B0212689A4209D1A023103052
S11345205B0518430368002B02D10133FF3303609A
S11345307047C046B40200200100802210B5002359
S113454001245205103111430C600B60902143602B
S1134550490504601C3001430B608821490501436F
S11345600B6084214905014310430B60036010BDB7
S11345700200902314325B05134300221A60426048
S1134580103201601A60704703680B6070470000C6
S1134590104B820070B5D558802204000E4B920552
S11345A01A602800FFF7C8FF2800FFF7B1FF0B4B84
S11345B01F261A5D0123180009493240095DC025F0
S11345C0314090408B40074A6D0050515351106068
S11345D0136070BDCC5000003C80845ED05000005D
S11345E0D150000000E100E0F7B50027114B800036
S11345F0C55808000E000197FFF732FF0400B842C7
S113460016D001A93000FFF755FF3800FEF710FF60
S1134610010080200002814206D0FCF7B9FA0100B3
S11346200198FCF7B5FA019028000199FFF7A0FF63
S11346302000FEBDCC500000F7B50025124B8000D1
S1134640C4580E00200001A90195FFF79DFF280022
S1134650FEF7EEFE05008020000285420ED00B4BD3
S1134660290004341C43FCF793FA2768019C2900B1
S11346704443B8B2FCF78CFA24180194310001A821
S1134680FFF7A0FEF7BDC046CC5000000000781034
S1134690F0B50027184B800085B0C55808000E00FF
S11346A001920397FFF7DCFE0400B84203D1002413
S11346B0200005B0F0BD300003A9FFF7FBFE380071
S11346C02E68FEF7B5FE010080200002814206D06C
S11346D0FCF75EFA01000398FCF75AFA0390039B77
S11346E0B342E4D3AB6088231C355B051D43019BB7
S11346F09A002A60DCE7C046CC500000044B8000DE
S1134700C25888231C325B05134389001960704723
S1134710CC500000054B8000C258882314325B053E
S113472013431868431E9841C0B27047CC50000030
S11347306B46E0221B78D2021B041340024A09078D
S11347400B4380180360704744100000084B82003C
S1134750D258902310B503325B0513431B78002B0A
S113476002D000F023F810BD00F088F8FBE7C04643
S1134770D45000000B4A830098580B4A00219B58E0
S11347809C22033352051A4310B50171117094220F
S1134790520513431970037F8B4202D02030FEF779
S11347A02EFC10BDBC020020D450000010B51E4BDE
S11347B08200D3581979002934D01C4951585A69B8
S11347C0002A11D09C2252050A431278002A0BD0E9
S11347D08A79DC68D2B2002C03D02270DA68013204
S11347E0DA605A69013A5A611A69002A12D094228D
S11347F052050A431278002A0CD09A68141E02D07B
S1134800147801329A608C711A69013A1A619A69B2
S113481001329A611A69002A04D15B69002B01D123
S1134820FFF7A8FF10BDC046BC020020D450000012
S1134830104A83009858104A411C9A58002310B516
S1134840CB779C21033249051143C3620370038370
S11348504362836203630B70942149050A43137016
S1134860030038331B78002B03D001210430FEF7FA
S1134870D6FB10BDBC020020D450000070B5254BFF
S11348808200D358591CC97F002942D0224952586A
S1134890D96A002917DB94214905114309780029B5
S11348A011D0D969CCB2596A002905D0DD6A002D2E
S11348B002DD0C78013159629471D96A0139D962E7
S11348C0596B01315963D96A002905DA9421D41C42
S11348D04905214300240C70196B002911DD9C212A
S11348E049051143097800290BD09279996AD2B20B
S11348F0002903D00A709A6A01329A621A6B013A4B
S11349001A63DA6A002A04DC1B6B002B01DCFFF754
S11349108FFF70BDBC020020D4500000012903D0D9
S1134920032909D00020704794235B0518430078BD
S1134930431E9841C0B2F6E78423F6E7431C0348BC
S113494049011843C9B201707047C046000088127B
S1134950831C9420400549011843C9B20170704773
S1134960831C034889011843C9B201707047C046CB
S113497000000813831C8C204005C9001843C9B2E9
S113498001707047F7B50400364EE31C1E433378BC
S113499008780D00DBB2072860D8FCF7E5F80419A5
S11349A02B0E192B2B45304B01341C430023237051
S11349B03378012BFCD10020FEBD012BFCD12A4B06
S11349C001341C43402323703378042BFCD1F2E7D9
S11349D00021012801D004200231337898423FD1CC
S11349E02000FFF7ABFF0421204A13698B431361B6
S11349F030BFE0E70227B84207D100270B79BB425A
S1134A0003D020004979FFF7ABFF194B01341C4355
S1134A1027703378154ADBB20193019B013301936C
S1134A20042311690B43E2E70421114B621C1A436E
S1134A3011706A78A11C0B431A70002A06D1AB7856
S1134A40002B03D02000E978FFF782FFAB79002B1D
S1134A50DFD02000E979FFF78DFFDAE70120ABE72B
S1134A600320A9E7000030100000881200ED00E0E8
S1134A7000001010C31C024818430078C0B27047ED
S1134A8000003010012314308B40012A04D180220D
S1134A9012051043036070478022D204DB431043A5
S1134AA0F8E701238B40002A01D0436070478360FC
S1134AB0FCE70023C222037043708370C370437108
S1134AC08371C371037242728372C37270470000B0
S1134AD0F0B5002487B00293FA23012627002500AD
S1134AE09B00534303900491009301947642AB00DE
S1134AF00593194BAA009B1859880498A140FCF708
S1134B0047F8009B009AC31A824200D9131AB34291
S1134B101FD2114AA900525C27000192002B02D037
S1134B200135322D13D10134032C01D0002B0DD1CA
S1134B30029A002A00D013603F220199BB01114060
S1134B400B43039ADBB2537007B0F0BD00251E007F
S1134B50CDE73300E4E7C046EE5000009423023072
S1134B605B0503431B78002B05D088235B051843A2
S1134B7004230370704780231B0518433023F8E790
S1134B80942130B54905851C29430A780300D4B221
S1134B900220012A0DD18022CF21D2042A43117090
S1134BA080210333C9001A785209100020402242A0
S1134BB000D130BD0139002901D0C046F3E70920F6
S1134BC0F7E7012310B58B400400080C04280AD829
S1134BD0FBF7CAFF030E14171A008020002A03D023
S1134BE000050443236010BDC004DB430443F9E71C
S1134BF0201D8024002A0AD02405F2E72000083072
S1134C00F7E720000C30F4E720001030F1E7E4046B
S1134C10EBE70200002300B5080C042808D8013390
S1134C20FBF7A2FF03080A0C0E001068C8400340FB
S1134C30180000BD5068F9E79068F7E7D068F5E719
S1134C401069F3E710B5FFF7E4FF10BD294A03002C
S1134C50881800B510284BD8FBF786FF433C272063
S1134C601912094A4A4A4A2E4A4A4A4A3500D02069
S1134C708022043340050343520300201A6000BD20
S1134C80CC2080220433400503431203F5E7C820F7
S1134C908022043340050343D202EEE7C42080227D
S1134CA00433400503439202E7E7C0208022043323
S1134CB0400503435202E0E7FC2080220433400510
S1134CC003431206D9E7F820802204334005034346
S1134CD0D205D2E7BC2080220433400503431202EC
S1134CE0CBE7B8208022043340050343D201C4E754
S1134CF00320C4E7F2FFFEFF04FEFF1F620F000063
S1134D00200F0000200F00001C0F0000260F0000E1
S1134D10260F0000321200001C0F0000260F0000B6
S1134D2032120000260F00001C0F0000C611000004
S1134D30C6110000C61100009C1200000A0A0A0DE8
S1134D40426F6F74696E6720576172702C20696EB0
S1134D5020332E2E2E2000322E2E2E2000312E2EE9
S1134D602E0A0A0A0D0041626F757420746F207355
S1134D7077697463682043505520746F20564C50F3
S1134D8052206D6F64652E2E2E2000776172705351
S1134D9065744C6F77506F7765724D6F6465286BDF
S1134DA057617270506F7765724D6F6465564C50E1
S1134DB0522829206661696C65642E2E2E0A0064CF
S1134DC06F6E652E0A0D0041626F757420746F203A
S1134DD04750494F5F4452565F496E697428292EE3
S1134DE02E2E2000646F6E652E0A0041626F75746A
S1134DF020746F206C6F77506F77657250696E53B3
S1134E00746174657328292E2E2E200053746172E8
S1134E1074696E67205265636F676E6974696F6E3B
S1134E202E2E2E0A004C6F6F70696E670A00446F55
S1134E306E650A000A776172705072696E7428296F
S1134E403A2076736E7072696E74662829206661E2
S1134E50696C65642E2E2E0A0A00FF0057696E6481
S1134E606F773A2025643A20302E2532640A0052A6
S1134E706F6C6C696E673A20302E2532640A0052DA
S1134E806561642049443A2025640A005741524E22
S1134E90203D3D3D204D4D412057484F414D492037
S1134EA04661696C6564202D203078253032780A9B
S1134EB0004D4D4120696E697420636F6D706C659F
S1134EC07465202D20307831410A000034FEFFFF44
S1134ED079FEFFFFA2FEFFFFBFFEFFFFD5FEFFFF2F
S1134EE0E7FEFFFFF7FEFFFF04FFFFFF10FFFFFFDA
S1134EF01AFFFFFF24FFFFFF2CFFFFFF34FFFFFF1C
S1134F003CFFFFFF43FFFFFF49FFFFFF4FFFFFFF92
S1134F1055FFFFFF5AFFFFFF60FFFFFF64FFFFFF26
S1134F2069FFFFFF6EFFFFFF72FFFFFF76FFFFFFCA
S1134F307AFFFFFF7EFFFFFF81FFFFFF85FFFFFF7B
S1134F4088FFFFFF8BFFFFFF8FFFFFFF92FFFFFF35
S1134F5095FFFFFF98FFFFFF9AFFFFFF9DFFFFFFF5
S1134F60A0FFFFFFA2FFFFFFA5FFFFFFA7FFFFFFBB
S1134F70AAFFFFFFACFFFFFFAEFFFFFFB1FFFFFF84
S1134F80B3FFFFFFB5FFFFFFB7FFFFFFB9FFFFFF51
S1134F90BBFFFFFFBDFFFFFFBFFFFFFFC1FFFFFF21
S1134FA0C3FFFFFFC5FFFFFFC7FFFFFFC8FFFFFFF2
S1134FB0CAFFFFFFCCFFFFFFCDFFFFFFCFFFFFFFC7
S1134FC0D1FFFFFFD2FFFFFFD4FFFFFFD5FFFFFF9D
S1134FD0D7FFFFFFD8FFFFFFDAFFFFFFDBFFFFFF75
S1134FE0DDFFFFFFDEFFFFFFE0FFFFFFE1FFFFFF4D
S1134FF0E2FFFFFFE4FFFFFFE5FFFFFFE6FFFFFF28
S1135000E8FFFFFFE9FFFFFFEAFFFFFFEBFFFFFF02
S1135010EDFFFFFFEEFFFFFFEFFFFFFFF0FFFFFFDE
S1135020F1FFFFFFF3FFFFFFF4FFFFFFF5FFFFFFBB
S1135030F6FFFFFFF7FFFFFFF8FFFFFFF9FFFFFF9A
S1135040FAFFFFFFFBFFFFFFFCFFFFFFFDFFFFFF7A
S1135050FEFFFFFFFFFFFFFFFFFFFFFFFFFFFFFF5D
S11350605465726D696E616C005254540053454727
S113507047455200303132333435363738394142BE
S113508043444546898A0000006006400800000049
S113509000400540001F1D1F1E1F1E1F1F1E1F1E38
S11350A01F00000000001F003B005A00780097001A
S11350B0B500D400F300110130014E01001F1C1F84
S11350C01E1F1E1F1F1E1F1E1F00000000D00340B6
S11350D014150000006007400050064000F00F4027
S11350E040F00F400090044000A004401E1F000048
S11350F01400010016000200180003001A00040046
S11351001C0005001E0009002000060022000A0001
S11351102400070028000C002C00100030001100AF
S11351203800120040000F0044001300480014002F
S113513050001500580019006000160068001A009D
S11351407000170080001C0090001D00A0001E00CD
S1135150C0002200E0001F00F00023000001240032
S1135160200125004001260080012A00C0012700FB
S1135170E0012B0000022C0040022D0080022E00D2
S11351800003320080032F00C00333000004340006
S1135190800435000005360000063A000007370099
S11351A080073B0000083C0000093D00000A3E0067
S11351B0000C3F00000F0000F8B5C046F8BC08BC66
S11351C09E467047F8B5C046F8BC08BC9E4670477A
S10B51D0D8B2FF7F01000000CA
S10751D88504000046
S10751DC590400006E
S11351E004FEFF1F0000000000000000000000009B
S11351F000000000000000000000000000000000AB
S1135200000000000000000000000000000000009A
S1135210000000000000000000000000000000008A
S1135220000000000000000000000000000000007A
S1135230000000000000000000000000000000006A
S11352400000000068FEFF1FBD1B000003000000FB
S11352500000000008070000C8000000050000006E
S113526048DBFFFF80DAFFFF99FFFFFFA503000083
S1135270EC03000008000000FAFFFFFF020000003A
S1135280A7310000490B000050440000E8FFFFFF75
S1135290EFFFFFFFF3FFFFFFEDFFFFFFA407000099
S11352A0DF010000120000000A000000FCFFFFFF05
S11352B010910200071E040063CE0100CBFBFFFF28
S11352C01EFCFFFF1CFDFFFF390500007F280000C6
S11352D010280000300000001B0000009A000000AD
S11352E0907B0007E44F4D00C0BCD60D2F09000091
S11352F08D010000FD010000B8040000330400002B
S1135300F30100007002000031040000D701000026
S1135310C25D9F02DED73D0921F8E802E9050000DD
S1135320A0070000EE050000FFFFFFFF00000000E3
S11353300A01000001000000000100000B01000050
S113534001000000000100000D0100000100000048
S113535000010000FFFFFFFF00000000000000004C
S11353600101000000000000000100000000000036
S10B537000000100000100002F
S903051DDA
